{
    "contractName": "MyEpicNFT",
    "abi": [
        {
            "inputs": [],
            "stateMutability": "nonpayable",
            "type": "constructor"
        },
        {
            "anonymous": false,
            "inputs": [
                {
                    "indexed": true,
                    "internalType": "address",
                    "name": "owner",
                    "type": "address"
                },
                {
                    "indexed": true,
                    "internalType": "address",
                    "name": "approved",
                    "type": "address"
                },
                {
                    "indexed": true,
                    "internalType": "uint256",
                    "name": "tokenId",
                    "type": "uint256"
                }
            ],
            "name": "Approval",
            "type": "event"
        },
        {
            "anonymous": false,
            "inputs": [
                {
                    "indexed": true,
                    "internalType": "address",
                    "name": "owner",
                    "type": "address"
                },
                {
                    "indexed": true,
                    "internalType": "address",
                    "name": "operator",
                    "type": "address"
                },
                {
                    "indexed": false,
                    "internalType": "bool",
                    "name": "approved",
                    "type": "bool"
                }
            ],
            "name": "ApprovalForAll",
            "type": "event"
        },
        {
            "anonymous": false,
            "inputs": [
                {
                    "indexed": false,
                    "internalType": "address",
                    "name": "sender",
                    "type": "address"
                },
                {
                    "indexed": false,
                    "internalType": "uint256",
                    "name": "tokenId",
                    "type": "uint256"
                }
            ],
            "name": "NewEpicNFTMinted",
            "type": "event"
        },
        {
            "anonymous": false,
            "inputs": [
                {
                    "indexed": true,
                    "internalType": "address",
                    "name": "from",
                    "type": "address"
                },
                {
                    "indexed": true,
                    "internalType": "address",
                    "name": "to",
                    "type": "address"
                },
                {
                    "indexed": true,
                    "internalType": "uint256",
                    "name": "tokenId",
                    "type": "uint256"
                }
            ],
            "name": "Transfer",
            "type": "event"
        },
        {
            "inputs": [
                {
                    "internalType": "address",
                    "name": "to",
                    "type": "address"
                },
                {
                    "internalType": "uint256",
                    "name": "tokenId",
                    "type": "uint256"
                }
            ],
            "name": "approve",
            "outputs": [],
            "stateMutability": "nonpayable",
            "type": "function"
        },
        {
            "inputs": [
                {
                    "internalType": "address",
                    "name": "owner",
                    "type": "address"
                }
            ],
            "name": "balanceOf",
            "outputs": [
                {
                    "internalType": "uint256",
                    "name": "",
                    "type": "uint256"
                }
            ],
            "stateMutability": "view",
            "type": "function"
        },
        {
            "inputs": [
                {
                    "internalType": "uint256",
                    "name": "tokenId",
                    "type": "uint256"
                }
            ],
            "name": "getApproved",
            "outputs": [
                {
                    "internalType": "address",
                    "name": "",
                    "type": "address"
                }
            ],
            "stateMutability": "view",
            "type": "function"
        },
        {
            "inputs": [],
            "name": "getTotalNFTsMintedSoFar",
            "outputs": [
                {
                    "internalType": "uint256",
                    "name": "",
                    "type": "uint256"
                }
            ],
            "stateMutability": "view",
            "type": "function"
        },
        {
            "inputs": [
                {
                    "internalType": "address",
                    "name": "owner",
                    "type": "address"
                },
                {
                    "internalType": "address",
                    "name": "operator",
                    "type": "address"
                }
            ],
            "name": "isApprovedForAll",
            "outputs": [
                {
                    "internalType": "bool",
                    "name": "",
                    "type": "bool"
                }
            ],
            "stateMutability": "view",
            "type": "function"
        },
        {
            "inputs": [],
            "name": "makeAnEpicNFT",
            "outputs": [],
            "stateMutability": "nonpayable",
            "type": "function"
        },
        {
            "inputs": [],
            "name": "name",
            "outputs": [
                {
                    "internalType": "string",
                    "name": "",
                    "type": "string"
                }
            ],
            "stateMutability": "view",
            "type": "function"
        },
        {
            "inputs": [
                {
                    "internalType": "uint256",
                    "name": "tokenId",
                    "type": "uint256"
                }
            ],
            "name": "ownerOf",
            "outputs": [
                {
                    "internalType": "address",
                    "name": "",
                    "type": "address"
                }
            ],
            "stateMutability": "view",
            "type": "function"
        },
        {
            "inputs": [
                {
                    "internalType": "uint256",
                    "name": "tokenId",
                    "type": "uint256"
                }
            ],
            "name": "pickRandomColor",
            "outputs": [
                {
                    "internalType": "string",
                    "name": "",
                    "type": "string"
                }
            ],
            "stateMutability": "view",
            "type": "function"
        },
        {
            "inputs": [
                {
                    "internalType": "uint256",
                    "name": "tokenId",
                    "type": "uint256"
                }
            ],
            "name": "pickRandomFirstWord",
            "outputs": [
                {
                    "internalType": "string",
                    "name": "",
                    "type": "string"
                }
            ],
            "stateMutability": "view",
            "type": "function"
        },
        {
            "inputs": [
                {
                    "internalType": "uint256",
                    "name": "tokenId",
                    "type": "uint256"
                }
            ],
            "name": "pickRandomSecondWord",
            "outputs": [
                {
                    "internalType": "string",
                    "name": "",
                    "type": "string"
                }
            ],
            "stateMutability": "view",
            "type": "function"
        },
        {
            "inputs": [
                {
                    "internalType": "uint256",
                    "name": "tokenId",
                    "type": "uint256"
                }
            ],
            "name": "pickRandomThirdWord",
            "outputs": [
                {
                    "internalType": "string",
                    "name": "",
                    "type": "string"
                }
            ],
            "stateMutability": "view",
            "type": "function"
        },
        {
            "inputs": [
                {
                    "internalType": "address",
                    "name": "from",
                    "type": "address"
                },
                {
                    "internalType": "address",
                    "name": "to",
                    "type": "address"
                },
                {
                    "internalType": "uint256",
                    "name": "tokenId",
                    "type": "uint256"
                }
            ],
            "name": "safeTransferFrom",
            "outputs": [],
            "stateMutability": "nonpayable",
            "type": "function"
        },
        {
            "inputs": [
                {
                    "internalType": "address",
                    "name": "from",
                    "type": "address"
                },
                {
                    "internalType": "address",
                    "name": "to",
                    "type": "address"
                },
                {
                    "internalType": "uint256",
                    "name": "tokenId",
                    "type": "uint256"
                },
                {
                    "internalType": "bytes",
                    "name": "_data",
                    "type": "bytes"
                }
            ],
            "name": "safeTransferFrom",
            "outputs": [],
            "stateMutability": "nonpayable",
            "type": "function"
        },
        {
            "inputs": [
                {
                    "internalType": "address",
                    "name": "operator",
                    "type": "address"
                },
                {
                    "internalType": "bool",
                    "name": "approved",
                    "type": "bool"
                }
            ],
            "name": "setApprovalForAll",
            "outputs": [],
            "stateMutability": "nonpayable",
            "type": "function"
        },
        {
            "inputs": [
                {
                    "internalType": "bytes4",
                    "name": "interfaceId",
                    "type": "bytes4"
                }
            ],
            "name": "supportsInterface",
            "outputs": [
                {
                    "internalType": "bool",
                    "name": "",
                    "type": "bool"
                }
            ],
            "stateMutability": "view",
            "type": "function"
        },
        {
            "inputs": [],
            "name": "symbol",
            "outputs": [
                {
                    "internalType": "string",
                    "name": "",
                    "type": "string"
                }
            ],
            "stateMutability": "view",
            "type": "function"
        },
        {
            "inputs": [
                {
                    "internalType": "uint256",
                    "name": "tokenId",
                    "type": "uint256"
                }
            ],
            "name": "tokenURI",
            "outputs": [
                {
                    "internalType": "string",
                    "name": "",
                    "type": "string"
                }
            ],
            "stateMutability": "view",
            "type": "function"
        },
        {
            "inputs": [
                {
                    "internalType": "address",
                    "name": "from",
                    "type": "address"
                },
                {
                    "internalType": "address",
                    "name": "to",
                    "type": "address"
                },
                {
                    "internalType": "uint256",
                    "name": "tokenId",
                    "type": "uint256"
                }
            ],
            "name": "transferFrom",
            "outputs": [],
            "stateMutability": "nonpayable",
            "type": "function"
        }
    ],
    "bytecode": "61018060405260d3608081815290620027ef60a03980516200002a9160089160209091019062000504565b50604051806080016040528060568152602001620028c26056913980516200005b9160099160209091019062000504565b506040805161010081018252600660c08201818152654c414b45525360d01b60e084015282528251808401845260048152631211505560e21b6020828101919091528084019190915283518085018552600881526757415252494f525360c01b8183015283850152835180850185526005808252644841574b5360d81b82840152606085019190915284518086018652908152644255434b5360d81b818301526080840152835180850190945260098452684d4156455249434b5360b81b9084015260a08201929092526200013491600a919062000593565b506040805161010081018252600660c08201818152652622a12927a760d11b60e084015282528251808401845281815265212aaa2622a960d11b60208281019190915280840191909152835180850185526005815264435552525960d81b8183015283850152835180850185526004808252635452455960e01b8284015260608501919091528451808601865260078152664749414e4e495360c81b81840152608085015284518086019095528452634c554b4160e01b9084015260a08201929092526200020691600b919062000593565b506040805161010081018252600460c08201908152634b494e4760e01b60e083015281528151808301835260078152664249474641434560c81b60208281019190915280830191909152825180840184526008815267424142594641434560c01b818301528284015282518084018452600381526249434560e81b81830152606083015282518084018452600580825264465245414b60d81b82840152608084019190915283518085019094528352644d4147494360d81b9083015260a0810191909152620002da90600c90600662000593565b506040518060c00160405280604051806040016040528060038152602001621c995960ea1b8152508152602001604051806040016040528060078152602001660466070866482760cb1b815250815260200160405180604001604052806005815260200164626c61636b60d81b81525081526020016040518060400160405280600681526020016579656c6c6f7760d01b815250815260200160405180604001604052806004815260200163626c756560e01b81525081526020016040518060400160405280600581526020016433b932b2b760d91b815250815250600d906006620003c892919062000593565b506032600e55348015620003db57600080fd5b50604080518082018252600981526814dc5d585c9953919560ba1b60208083019182528351808501909452600684526553515541524560d01b9084015281519192916200042b9160009162000504565b5080516200044190600190602084019062000504565b5050506200048f6040518060400160405280601e81526020017f54686973206973206d79204e465420636f6e74726163742e20576f61682100008152506200049560201b62000c2b1760201c565b620006fe565b620004e081604051602401620004ac91906200066a565b60408051601f198184030181529190526020810180516001600160e01b0390811663104c13eb60e21b17909152620004e316565b50565b80516a636f6e736f6c652e6c6f67602083016000808483855afa5050505050565b8280546200051290620006c2565b90600052602060002090601f01602090048101928262000536576000855562000581565b82601f106200055157805160ff191683800117855562000581565b8280016001018555821562000581579182015b828111156200058157825182559160200191906001019062000564565b506200058f929150620005f3565b5090565b828054828255906000526020600020908101928215620005e5579160200282015b82811115620005e55782518051620005d491849160209091019062000504565b5091602001919060010190620005b4565b506200058f9291506200060a565b5b808211156200058f5760008155600101620005f4565b808211156200058f5760006200062182826200062b565b506001016200060a565b5080546200063990620006c2565b6000825580601f106200064a575050565b601f016020900490600052602060002090810190620004e09190620005f3565b600060208083528351808285015260005b8181101562000699578581018301518582016040015282016200067b565b81811115620006ac576000604083870101525b50601f01601f1916929092016040019392505050565b600181811c90821680620006d757607f821691505b602082108103620006f857634e487b7160e01b600052602260045260246000fd5b50919050565b6120e1806200070e6000396000f3fe608060405234801561001057600080fd5b50600436106101215760003560e01c80636352211e116100ad578063b88d4fde11610071578063b88d4fde14610259578063c575757a1461026c578063c87b56dd1461027f578063de9d132f14610292578063e985e9c51461029a57600080fd5b80636352211e1461020557806370a082311461021857806395d89b411461022b578063a22cb46514610233578063b187301f1461024657600080fd5b8063095ea7b3116100f4578063095ea7b3146101a457806323b872dd146101b95780632de38d68146101cc57806342842e0e146101df578063514dc8c6146101f257600080fd5b806301ffc9a714610126578063060475901461014e57806306fdde0314610164578063081812fc14610179575b600080fd5b610139610134366004611815565b6102d6565b60405190151581526020015b60405180910390f35b610156610328565b604051908152602001610145565b61016c610338565b604051610145919061188a565b61018c61018736600461189d565b6103ca565b6040516001600160a01b039091168152602001610145565b6101b76101b23660046118d2565b610457565b005b6101b76101c73660046118fc565b61056c565b61016c6101da36600461189d565b61059d565b6101b76101ed3660046118fc565b610691565b61016c61020036600461189d565b6106ac565b61018c61021336600461189d565b6106f1565b610156610226366004611938565b610768565b61016c6107ef565b6101b7610241366004611953565b6107fe565b61016c61025436600461189d565b61080d565b6101b76102673660046119a5565b610852565b61016c61027a36600461189d565b61088a565b61016c61028d36600461189d565b6108cf565b6101b7610a45565b6101396102a8366004611a81565b6001600160a01b03918216600090815260056020908152604080832093909416825291909152205460ff1690565b60006001600160e01b031982166380ac58cd60e01b148061030757506001600160e01b03198216635b5e139f60e01b145b8061032257506301ffc9a760e01b6001600160e01b03198316145b92915050565b600061033360075490565b905090565b60606000805461034790611ab4565b80601f016020809104026020016040519081016040528092919081815260200182805461037390611ab4565b80156103c05780601f10610395576101008083540402835291602001916103c0565b820191906000526020600020905b8154815290600101906020018083116103a357829003601f168201915b5050505050905090565b60006103d582610c71565b61043b5760405162461bcd60e51b815260206004820152602c60248201527f4552433732313a20617070726f76656420717565727920666f72206e6f6e657860448201526b34b9ba32b73a103a37b5b2b760a11b60648201526084015b60405180910390fd5b506000908152600460205260409020546001600160a01b031690565b6000610462826106f1565b9050806001600160a01b0316836001600160a01b0316036104cf5760405162461bcd60e51b815260206004820152602160248201527f4552433732313a20617070726f76616c20746f2063757272656e74206f776e656044820152603960f91b6064820152608401610432565b336001600160a01b03821614806104eb57506104eb81336102a8565b61055d5760405162461bcd60e51b815260206004820152603860248201527f4552433732313a20617070726f76652063616c6c6572206973206e6f74206f7760448201527f6e6572206e6f7220617070726f76656420666f7220616c6c00000000000000006064820152608401610432565b6105678383610c8e565b505050565b6105763382610cfc565b6105925760405162461bcd60e51b815260040161043290611aee565b610567838383610de5565b606060006105d16105ad84610f81565b6040516020016105bd9190611b3f565b604051602081830303815290604052611082565b600a549091506105e19082611b87565b9050600a81815481106105f6576105f6611b9b565b90600052602060002001805461060b90611ab4565b80601f016020809104026020016040519081016040528092919081815260200182805461063790611ab4565b80156106845780601f1061065957610100808354040283529160200191610684565b820191906000526020600020905b81548152906001019060200180831161066757829003601f168201915b5050505050915050919050565b61056783838360405180602001604052806000815250610852565b606060006106cc6106bc84610f81565b6040516020016105bd9190611bb1565b600d549091506106dc9082611b87565b9050600d81815481106105f6576105f6611b9b565b6000818152600260205260408120546001600160a01b0316806103225760405162461bcd60e51b815260206004820152602960248201527f4552433732313a206f776e657220717565727920666f72206e6f6e657869737460448201526832b73a103a37b5b2b760b91b6064820152608401610432565b60006001600160a01b0382166107d35760405162461bcd60e51b815260206004820152602a60248201527f4552433732313a2062616c616e636520717565727920666f7220746865207a65604482015269726f206164647265737360b01b6064820152608401610432565b506001600160a01b031660009081526003602052604090205490565b60606001805461034790611ab4565b6108093383836110b3565b5050565b6060600061082d61081d84610f81565b6040516020016105bd9190611bde565b600b5490915061083d9082611b87565b9050600b81815481106105f6576105f6611b9b565b61085c3383610cfc565b6108785760405162461bcd60e51b815260040161043290611aee565b61088484848484611181565b50505050565b606060006108aa61089a84610f81565b6040516020016105bd9190611c11565b600c549091506108ba9082611b87565b9050600c81815481106105f6576105f6611b9b565b60606108da82610c71565b6109405760405162461bcd60e51b815260206004820152603160248201527f45524337323155524953746f726167653a2055524920717565727920666f72206044820152703737b732bc34b9ba32b73a103a37b5b2b760791b6064820152608401610432565b6000828152600660205260408120805461095990611ab4565b80601f016020809104026020016040519081016040528092919081815260200182805461098590611ab4565b80156109d25780601f106109a7576101008083540402835291602001916109d2565b820191906000526020600020905b8154815290600101906020018083116109b557829003601f168201915b5050505050905060006109f060408051602081019091526000815290565b90508051600003610a02575092915050565b815115610a34578082604051602001610a1c929190611c36565b60405160208183030381529060405292505050919050565b610a3d846111b4565b949350505050565b6000610a5060075490565b90506000610a5d8261059d565b90506000610a6a8361080d565b90506000610a778461088a565b90506000838383604051602001610a9093929190611c65565b60405160208183030381529060405290506000610aac866106ac565b90506000600882600985604051602001610ac99493929190611d41565b60405160208183030381529060405290506000610b0e84610ae98461128c565b604051602001610afa929190611d9f565b60405160208183030381529060405261128c565b9050600081604051602001610b239190611e75565b60408051601f1981840301815282820190915260158252740a2d2d2d2d2d2d2d2d2d2d2d2d2d2d2d2d2d2d2d2d60581b60208301529150610b6390610c2b565b610b6c81610c2b565b610ba26040518060400160405280601581526020017416969696969696969696969696969696969696968560591b815250610c2b565b610bac338a6113f6565b610bb68982611410565b610bc4600780546001019055565b610be7604051806060016040528060258152602001612047602591398a3361149b565b60408051338152602081018b90527febb98688741ffa4c7589bf325de30cf7becb63de567842e1ccdb6cb949fdc82c910160405180910390a1505050505050505050565b610c6e81604051602401610c3f919061188a565b60408051601f198184030181529190526020810180516001600160e01b031663104c13eb60e21b1790526114de565b50565b6000908152600260205260409020546001600160a01b0316151590565b600081815260046020526040902080546001600160a01b0319166001600160a01b0384169081179091558190610cc3826106f1565b6001600160a01b03167f8c5be1e5ebec7d5bd14f71427d1e84f3dd0314c0f7b2291e5b200ac8c7c3b92560405160405180910390a45050565b6000610d0782610c71565b610d685760405162461bcd60e51b815260206004820152602c60248201527f4552433732313a206f70657261746f7220717565727920666f72206e6f6e657860448201526b34b9ba32b73a103a37b5b2b760a11b6064820152608401610432565b6000610d73836106f1565b9050806001600160a01b0316846001600160a01b03161480610dba57506001600160a01b0380821660009081526005602090815260408083209388168352929052205460ff165b80610a3d5750836001600160a01b0316610dd3846103ca565b6001600160a01b031614949350505050565b826001600160a01b0316610df8826106f1565b6001600160a01b031614610e5c5760405162461bcd60e51b815260206004820152602560248201527f4552433732313a207472616e736665722066726f6d20696e636f72726563742060448201526437bbb732b960d91b6064820152608401610432565b6001600160a01b038216610ebe5760405162461bcd60e51b8152602060048201526024808201527f4552433732313a207472616e7366657220746f20746865207a65726f206164646044820152637265737360e01b6064820152608401610432565b610ec9600082610c8e565b6001600160a01b0383166000908152600360205260408120805460019290610ef2908490611ed0565b90915550506001600160a01b0382166000908152600360205260408120805460019290610f20908490611ee7565b909155505060008181526002602052604080822080546001600160a01b0319166001600160a01b0386811691821790925591518493918716917fddf252ad1be2c89b69c2b068fc378daa952ba7f163c4a11628f55a4df523b3ef91a4505050565b606081600003610fa85750506040805180820190915260018152600360fc1b602082015290565b8160005b8115610fd25780610fbc81611eff565b9150610fcb9050600a83611f18565b9150610fac565b60008167ffffffffffffffff811115610fed57610fed61198f565b6040519080825280601f01601f191660200182016040528015611017576020820181803683370190505b5090505b8415610a3d5761102c600183611ed0565b9150611039600a86611b87565b611044906030611ee7565b60f81b81838151811061105957611059611b9b565b60200101906001600160f81b031916908160001a90535061107b600a86611f18565b945061101b565b6000816040516020016110959190611f2c565b60408051601f19818403018152919052805160209091012092915050565b816001600160a01b0316836001600160a01b0316036111145760405162461bcd60e51b815260206004820152601960248201527f4552433732313a20617070726f766520746f2063616c6c6572000000000000006044820152606401610432565b6001600160a01b03838116600081815260056020908152604080832094871680845294825291829020805460ff191686151590811790915591519182527f17307eab39ab6107e8899845ad3d59bd9653f200f220920489ca2b5937696c31910160405180910390a3505050565b61118c848484610de5565b611198848484846114ff565b6108845760405162461bcd60e51b815260040161043290611f48565b60606111bf82610c71565b6112235760405162461bcd60e51b815260206004820152602f60248201527f4552433732314d657461646174613a2055524920717565727920666f72206e6f60448201526e3732bc34b9ba32b73a103a37b5b2b760891b6064820152608401610432565b600061123a60408051602081019091526000815290565b9050600081511161125a5760405180602001604052806000815250611285565b8061126484610f81565b604051602001611275929190611c36565b6040516020818303038152906040525b9392505050565b805160609060008190036112b0575050604080516020810190915260008152919050565b600060036112bf836002611ee7565b6112c99190611f18565b6112d4906004611f9a565b905060006112e3826020611ee7565b67ffffffffffffffff8111156112fb576112fb61198f565b6040519080825280601f01601f191660200182016040528015611325576020820181803683370190505b509050600060405180606001604052806040815260200161206c604091399050600181016020830160005b868110156113b1576003818a01810151603f601282901c8116860151600c83901c8216870151600684901c831688015192909316870151600891821b60ff94851601821b92841692909201901b91160160e01b835260049092019101611350565b5060038606600181146113cb57600281146113dc576113e8565b613d3d60f01b6001198301526113e8565b603d60f81b6000198301525b505050918152949350505050565b610809828260405180602001604052806000815250611600565b61141982610c71565b61147c5760405162461bcd60e51b815260206004820152602e60248201527f45524337323155524953746f726167653a2055524920736574206f66206e6f6e60448201526d32bc34b9ba32b73a103a37b5b2b760911b6064820152608401610432565b6000828152600660209081526040909120825161056792840190611766565b6105678383836040516024016114b393929190611fb9565b60408051601f198184030181529190526020810180516001600160e01b031663e3849f7960e01b1790525b80516a636f6e736f6c652e6c6f67602083016000808483855afa5050505050565b60006001600160a01b0384163b156115f557604051630a85bd0160e11b81526001600160a01b0385169063150b7a0290611543903390899088908890600401611fec565b6020604051808303816000875af192505050801561157e575060408051601f3d908101601f1916820190925261157b91810190612029565b60015b6115db573d8080156115ac576040519150601f19603f3d011682016040523d82523d6000602084013e6115b1565b606091505b5080516000036115d35760405162461bcd60e51b815260040161043290611f48565b805181602001fd5b6001600160e01b031916630a85bd0160e11b149050610a3d565b506001949350505050565b61160a8383611633565b61161760008484846114ff565b6105675760405162461bcd60e51b815260040161043290611f48565b6001600160a01b0382166116895760405162461bcd60e51b815260206004820181905260248201527f4552433732313a206d696e7420746f20746865207a65726f20616464726573736044820152606401610432565b61169281610c71565b156116df5760405162461bcd60e51b815260206004820152601c60248201527f4552433732313a20746f6b656e20616c7265616479206d696e746564000000006044820152606401610432565b6001600160a01b0382166000908152600360205260408120805460019290611708908490611ee7565b909155505060008181526002602052604080822080546001600160a01b0319166001600160a01b03861690811790915590518392907fddf252ad1be2c89b69c2b068fc378daa952ba7f163c4a11628f55a4df523b3ef908290a45050565b82805461177290611ab4565b90600052602060002090601f01602090048101928261179457600085556117da565b82601f106117ad57805160ff19168380011785556117da565b828001600101855582156117da579182015b828111156117da5782518255916020019190600101906117bf565b506117e69291506117ea565b5090565b5b808211156117e657600081556001016117eb565b6001600160e01b031981168114610c6e57600080fd5b60006020828403121561182757600080fd5b8135611285816117ff565b60005b8381101561184d578181015183820152602001611835565b838111156108845750506000910152565b60008151808452611876816020860160208601611832565b601f01601f19169290920160200192915050565b602081526000611285602083018461185e565b6000602082840312156118af57600080fd5b5035919050565b80356001600160a01b03811681146118cd57600080fd5b919050565b600080604083850312156118e557600080fd5b6118ee836118b6565b946020939093013593505050565b60008060006060848603121561191157600080fd5b61191a846118b6565b9250611928602085016118b6565b9150604084013590509250925092565b60006020828403121561194a57600080fd5b611285826118b6565b6000806040838503121561196657600080fd5b61196f836118b6565b91506020830135801515811461198457600080fd5b809150509250929050565b634e487b7160e01b600052604160045260246000fd5b600080600080608085870312156119bb57600080fd5b6119c4856118b6565b93506119d2602086016118b6565b925060408501359150606085013567ffffffffffffffff808211156119f657600080fd5b818701915087601f830112611a0a57600080fd5b813581811115611a1c57611a1c61198f565b604051601f8201601f19908116603f01168101908382118183101715611a4457611a4461198f565b816040528281528a6020848701011115611a5d57600080fd5b82602086016020830137600060208483010152809550505050505092959194509250565b60008060408385031215611a9457600080fd5b611a9d836118b6565b9150611aab602084016118b6565b90509250929050565b600181811c90821680611ac857607f821691505b602082108103611ae857634e487b7160e01b600052602260045260246000fd5b50919050565b60208082526031908201527f4552433732313a207472616e736665722063616c6c6572206973206e6f74206f6040820152701ddb995c881b9bdc88185c1c1c9bdd9959607a1b606082015260800190565b6911925494d517d5d3d49160b21b815260008251611b6481600a850160208701611832565b91909101600a0192915050565b634e487b7160e01b600052601260045260246000fd5b600082611b9657611b96611b71565b500690565b634e487b7160e01b600052603260045260246000fd5b6421a7a627a960d91b815260008251611bd1816005850160208701611832565b9190910160050192915050565b6a14d150d3d39117d5d3d49160aa1b815260008251611c0481600b850160208701611832565b91909101600b0192915050565b69151212549117d5d3d49160b21b815260008251611b6481600a850160208701611832565b60008351611c48818460208801611832565b835190830190611c5c818360208801611832565b01949350505050565b60008451611c77818460208901611832565b845190830190611c8b818360208901611832565b8451910190611c9e818360208801611832565b0195945050505050565b8054600090600181811c9080831680611cc257607f831692505b60208084108203611ce357634e487b7160e01b600052602260045260246000fd5b818015611cf75760018114611d0857611d35565b60ff19861689528489019650611d35565b60008881526020902060005b86811015611d2d5781548b820152908501908301611d14565b505084890196505b50505050505092915050565b6000611d4d8287611ca8565b8551611d5d818360208a01611832565b611d6981830187611ca8565b9150508351611d7c818360208801611832565b6c1e17ba32bc3a1f1e17b9bb339f60991b9101908152600d019695505050505050565b693d913730b6b2911d101160b11b81528251600090611dc581600a850160208801611832565b7f222c20226465736372697074696f6e223a20224120686967686c79206163636c600a918401918201527f61696d656420636f6c6c656374696f6e206f6620737175617265732e222c2022602a8201527f696d616765223a2022646174613a696d6167652f7376672b786d6c3b62617365604a820152620d8d0b60ea1b606a8201528351611e5a81606d840160208801611832565b61227d60f01b606d9290910191820152606f01949350505050565b7f646174613a6170706c69636174696f6e2f6a736f6e3b6261736536342c000000815260008251611ead81601d850160208701611832565b91909101601d0192915050565b634e487b7160e01b600052601160045260246000fd5b600082821015611ee257611ee2611eba565b500390565b60008219821115611efa57611efa611eba565b500190565b600060018201611f1157611f11611eba565b5060010190565b600082611f2757611f27611b71565b500490565b60008251611f3e818460208701611832565b9190910192915050565b60208082526032908201527f4552433732313a207472616e7366657220746f206e6f6e20455243373231526560408201527131b2b4bb32b91034b6b83632b6b2b73a32b960711b606082015260800190565b6000816000190483118215151615611fb457611fb4611eba565b500290565b606081526000611fcc606083018661185e565b6020830194909452506001600160a01b0391909116604090910152919050565b6001600160a01b038581168252841660208201526040810183905260806060820181905260009061201f9083018461185e565b9695505050505050565b60006020828403121561203b57600080fd5b8151611285816117ff56fe416e204e465420772f20494420257320686173206265656e206d696e74656420746f2025734142434445464748494a4b4c4d4e4f505152535455565758595a6162636465666768696a6b6c6d6e6f707172737475767778797a303132333435363738392b2fa2646970667358221220e13f2910f34911ac6a5b4b0e4cba62d5c5e1bd37807e2776040b3a17c9ee756164736f6c634300080e00333c73766720786d6c6e733d27687474703a2f2f7777772e77332e6f72672f323030302f73766727207072657365727665417370656374526174696f3d27784d696e594d696e206d656574272076696577426f783d273020302033353020333530273e3c7374796c653e2e62617365207b2066696c6c3a2077686974653b20666f6e742d66616d696c793a2073657269663b20666f6e742d73697a653a20323470783b207d3c2f7374796c653e3c726563742077696474683d273130302527206865696768743d2731303025272066696c6c3d27272f3e3c7465787420783d273530252720793d273530252720636c6173733d27626173652720646f6d696e616e742d626173656c696e653d276d6964646c652720746578742d616e63686f723d276d6964646c65273e",
    "sourcePath": "c:/Users/felix/Desktop/epic-nfts/contracts/MyEpicNFT.sol",
    "compiler": {
        "name": "solc",
        "version": "0.8.14+commit.80d49f37"
    },
    "functionHashes": {
        "approve(address,uint256)": "095ea7b3",
        "balanceOf(address)": "70a08231",
        "getApproved(uint256)": "081812fc",
        "getTotalNFTsMintedSoFar()": "06047590",
        "isApprovedForAll(address,address)": "e985e9c5",
        "makeAnEpicNFT()": "de9d132f",
        "name()": "06fdde03",
        "ownerOf(uint256)": "6352211e",
        "pickRandomColor(uint256)": "514dc8c6",
        "pickRandomFirstWord(uint256)": "2de38d68",
        "pickRandomSecondWord(uint256)": "b187301f",
        "pickRandomThirdWord(uint256)": "c575757a",
        "safeTransferFrom(address,address,uint256)": "42842e0e",
        "safeTransferFrom(address,address,uint256,bytes)": "b88d4fde",
        "setApprovalForAll(address,bool)": "a22cb465",
        "supportsInterface(bytes4)": "01ffc9a7",
        "symbol()": "95d89b41",
        "tokenURI(uint256)": "c87b56dd",
        "transferFrom(address,address,uint256)": "23b872dd"
    },
    "gasEstimates": {
        "creation": {
            "codeDepositCost": "1683400",
            "executionCost": "infinite",
            "totalCost": "infinite"
        },
        "external": {
            "approve(address,uint256)": "infinite",
            "balanceOf(address)": "2634",
            "getApproved(uint256)": "4821",
            "getTotalNFTsMintedSoFar()": "2376",
            "isApprovedForAll(address,address)": "infinite",
            "makeAnEpicNFT()": "infinite",
            "name()": "infinite",
            "ownerOf(uint256)": "2579",
            "pickRandomColor(uint256)": "infinite",
            "pickRandomFirstWord(uint256)": "infinite",
            "pickRandomSecondWord(uint256)": "infinite",
            "pickRandomThirdWord(uint256)": "infinite",
            "safeTransferFrom(address,address,uint256)": "infinite",
            "safeTransferFrom(address,address,uint256,bytes)": "infinite",
            "setApprovalForAll(address,bool)": "26772",
            "supportsInterface(bytes4)": "534",
            "symbol()": "infinite",
            "tokenURI(uint256)": "infinite",
            "transferFrom(address,address,uint256)": "infinite"
        },
        "internal": {
            "random(string memory)": "infinite"
        }
    }
}